{
  "contractName": "IdentityManagement",
  "abi": [
    {
      "inputs": [],
      "stateMutability": "nonpayable",
      "type": "constructor"
    },
    {
      "inputs": [
        {
          "internalType": "address",
          "name": "",
          "type": "address"
        },
        {
          "internalType": "uint256",
          "name": "",
          "type": "uint256"
        }
      ],
      "name": "DLRequestMap",
      "outputs": [
        {
          "internalType": "string",
          "name": "requestedBy",
          "type": "string"
        },
        {
          "internalType": "string",
          "name": "DL_No",
          "type": "string"
        },
        {
          "internalType": "string",
          "name": "DL_Name",
          "type": "string"
        },
        {
          "internalType": "string",
          "name": "DL_DOB",
          "type": "string"
        },
        {
          "internalType": "bytes",
          "name": "DL_Hash",
          "type": "bytes"
        },
        {
          "internalType": "string",
          "name": "DL_Address",
          "type": "string"
        },
        {
          "internalType": "uint8",
          "name": "DL_OverAll_Status",
          "type": "uint8"
        }
      ],
      "stateMutability": "view",
      "type": "function",
      "constant": true
    },
    {
      "inputs": [],
      "name": "contractOwner",
      "outputs": [
        {
          "internalType": "address",
          "name": "",
          "type": "address"
        }
      ],
      "stateMutability": "view",
      "type": "function",
      "constant": true
    },
    {
      "inputs": [
        {
          "internalType": "address",
          "name": "",
          "type": "address"
        },
        {
          "internalType": "uint256",
          "name": "",
          "type": "uint256"
        }
      ],
      "name": "userDLMap",
      "outputs": [
        {
          "internalType": "string",
          "name": "DL_No",
          "type": "string"
        },
        {
          "internalType": "string",
          "name": "DL_Name",
          "type": "string"
        },
        {
          "internalType": "string",
          "name": "DL_DOB",
          "type": "string"
        },
        {
          "internalType": "bytes",
          "name": "DL_Hash",
          "type": "bytes"
        },
        {
          "internalType": "string",
          "name": "DL_Address",
          "type": "string"
        }
      ],
      "stateMutability": "view",
      "type": "function",
      "constant": true
    },
    {
      "inputs": [
        {
          "internalType": "address",
          "name": "",
          "type": "address"
        },
        {
          "internalType": "uint256",
          "name": "",
          "type": "uint256"
        }
      ],
      "name": "userMap",
      "outputs": [
        {
          "internalType": "string",
          "name": "fullName",
          "type": "string"
        },
        {
          "internalType": "string",
          "name": "emailID",
          "type": "string"
        },
        {
          "internalType": "uint256",
          "name": "mobileNo",
          "type": "uint256"
        }
      ],
      "stateMutability": "view",
      "type": "function",
      "constant": true
    },
    {
      "inputs": [
        {
          "internalType": "string",
          "name": "_fullName",
          "type": "string"
        },
        {
          "internalType": "string",
          "name": "_emailID",
          "type": "string"
        },
        {
          "internalType": "uint256",
          "name": "_mobileNo",
          "type": "uint256"
        }
      ],
      "name": "addUser",
      "outputs": [],
      "stateMutability": "nonpayable",
      "type": "function"
    },
    {
      "inputs": [
        {
          "internalType": "string",
          "name": "_DL_No",
          "type": "string"
        },
        {
          "internalType": "string",
          "name": "_DL_Name",
          "type": "string"
        },
        {
          "internalType": "string",
          "name": "_DL_DOB",
          "type": "string"
        },
        {
          "internalType": "bytes",
          "name": "_DL_Hash",
          "type": "bytes"
        },
        {
          "internalType": "string",
          "name": "_DL_Address",
          "type": "string"
        }
      ],
      "name": "addUserDL",
      "outputs": [],
      "stateMutability": "nonpayable",
      "type": "function"
    },
    {
      "inputs": [
        {
          "internalType": "string",
          "name": "_requestedBy",
          "type": "string"
        },
        {
          "internalType": "string",
          "name": "_DL_No",
          "type": "string"
        },
        {
          "internalType": "string",
          "name": "_DL_Name",
          "type": "string"
        },
        {
          "internalType": "string",
          "name": "_DL_DOB",
          "type": "string"
        },
        {
          "internalType": "bytes",
          "name": "_DL_Hash",
          "type": "bytes"
        },
        {
          "internalType": "string",
          "name": "_DL_Address",
          "type": "string"
        },
        {
          "internalType": "uint8",
          "name": "_DL_OverAll_Status",
          "type": "uint8"
        }
      ],
      "name": "addDLRequest",
      "outputs": [],
      "stateMutability": "nonpayable",
      "type": "function"
    },
    {
      "inputs": [],
      "name": "viewDLRequestLength",
      "outputs": [
        {
          "internalType": "uint256",
          "name": "",
          "type": "uint256"
        }
      ],
      "stateMutability": "view",
      "type": "function",
      "constant": true
    },
    {
      "inputs": [
        {
          "internalType": "uint256",
          "name": "_requestIndex",
          "type": "uint256"
        }
      ],
      "name": "viewDLRequestHeader",
      "outputs": [
        {
          "internalType": "string",
          "name": "",
          "type": "string"
        },
        {
          "internalType": "uint8",
          "name": "",
          "type": "uint8"
        }
      ],
      "stateMutability": "view",
      "type": "function",
      "constant": true
    },
    {
      "inputs": [
        {
          "internalType": "uint256",
          "name": "_requestIndex",
          "type": "uint256"
        }
      ],
      "name": "viewDLRequestDetail",
      "outputs": [
        {
          "internalType": "string",
          "name": "",
          "type": "string"
        },
        {
          "internalType": "string",
          "name": "",
          "type": "string"
        },
        {
          "internalType": "string",
          "name": "",
          "type": "string"
        },
        {
          "internalType": "string",
          "name": "",
          "type": "string"
        },
        {
          "internalType": "bytes",
          "name": "",
          "type": "bytes"
        },
        {
          "internalType": "string",
          "name": "",
          "type": "string"
        },
        {
          "internalType": "uint8",
          "name": "",
          "type": "uint8"
        }
      ],
      "stateMutability": "view",
      "type": "function",
      "constant": true
    },
    {
      "inputs": [
        {
          "internalType": "uint256",
          "name": "_requestIndex",
          "type": "uint256"
        },
        {
          "internalType": "string",
          "name": "_DL_No",
          "type": "string"
        },
        {
          "internalType": "string",
          "name": "_DL_Name",
          "type": "string"
        },
        {
          "internalType": "string",
          "name": "_DL_DOB",
          "type": "string"
        },
        {
          "internalType": "bytes",
          "name": "_DL_Hash",
          "type": "bytes"
        },
        {
          "internalType": "string",
          "name": "_DL_Address",
          "type": "string"
        },
        {
          "internalType": "uint8",
          "name": "_DL_OverAll_Status",
          "type": "uint8"
        }
      ],
      "name": "updateRequestStatus",
      "outputs": [],
      "stateMutability": "nonpayable",
      "type": "function"
    },
    {
      "inputs": [
        {
          "internalType": "uint256",
          "name": "_userIndex",
          "type": "uint256"
        }
      ],
      "name": "viewUser",
      "outputs": [
        {
          "internalType": "string",
          "name": "",
          "type": "string"
        },
        {
          "internalType": "string",
          "name": "",
          "type": "string"
        },
        {
          "internalType": "uint256",
          "name": "",
          "type": "uint256"
        }
      ],
      "stateMutability": "view",
      "type": "function",
      "constant": true
    },
    {
      "inputs": [
        {
          "internalType": "uint256",
          "name": "_requestIndex",
          "type": "uint256"
        }
      ],
      "name": "viewUserDL",
      "outputs": [
        {
          "internalType": "string",
          "name": "",
          "type": "string"
        },
        {
          "internalType": "string",
          "name": "",
          "type": "string"
        },
        {
          "internalType": "string",
          "name": "",
          "type": "string"
        },
        {
          "internalType": "string",
          "name": "",
          "type": "string"
        },
        {
          "internalType": "string",
          "name": "",
          "type": "string"
        },
        {
          "internalType": "string",
          "name": "",
          "type": "string"
        },
        {
          "internalType": "bytes",
          "name": "",
          "type": "bytes"
        },
        {
          "internalType": "bytes",
          "name": "",
          "type": "bytes"
        },
        {
          "internalType": "string",
          "name": "",
          "type": "string"
        },
        {
          "internalType": "string",
          "name": "",
          "type": "string"
        }
      ],
      "stateMutability": "view",
      "type": "function",
      "constant": true
    }
  ],
  "bytecode": "0x608060405234801561001057600080fd5b50336000806101000a81548173ffffffffffffffffffffffffffffffffffffffff021916908373ffffffffffffffffffffffffffffffffffffffff160217905550613579806100606000396000f3fe608060405234801561001057600080fd5b50600436106100cf5760003560e01c80637d439b441161008c578063964f593711610066578063964f593714610245578063ce606ee014610261578063cf76d0f11461027f578063ee1476ef146102b5576100cf565b80637d439b44146101d957806382f27c12146101f75780638a6e443314610229576100cf565b806303fdf096146100d45780631b56023b146101085780634644f039146101245780634ff922e1146101565780635516b93e146101875780637c9b18d7146101a3575b600080fd5b6100ee60048036038101906100e991906125fd565b6102ee565b6040516100ff959493929190612722565b60405180910390f35b610122600480360381019061011d91906129a7565b6105e9565b005b61013e600480360381019061013991906125fd565b610737565b60405161014d93929190612b00565b60405180910390f35b610170600480360381019061016b9190612b45565b61088e565b60405161017e929190612b81565b60405180910390f35b6101a1600480360381019061019c9190612bb1565b610d21565b005b6101bd60048036038101906101b89190612b45565b611059565b6040516101d09796959493929190612cdf565b60405180910390f35b6101e161151c565b6040516101ee9190612d78565b60405180910390f35b610211600480360381019061020c9190612b45565b611566565b60405161022093929190612b00565b60405180910390f35b610243600480360381019061023e9190612d93565b6117a8565b005b61025f600480360381019061025a9190612e9a565b6118ae565b005b61026961196e565b6040516102769190612f34565b60405180910390f35b610299600480360381019061029491906125fd565b611992565b6040516102ac9796959493929190612cdf565b60405180910390f35b6102cf60048036038101906102ca9190612b45565b611d2e565b6040516102e59a99989796959493929190612f4f565b60405180910390f35b6002602052816000526040600020818154811061030a57600080fd5b90600052602060002090600502016000915091505080600001805461032e90613060565b80601f016020809104026020016040519081016040528092919081815260200182805461035a90613060565b80156103a75780601f1061037c576101008083540402835291602001916103a7565b820191906000526020600020905b81548152906001019060200180831161038a57829003601f168201915b5050505050908060010180546103bc90613060565b80601f01602080910402602001604051908101604052809291908181526020018280546103e890613060565b80156104355780601f1061040a57610100808354040283529160200191610435565b820191906000526020600020905b81548152906001019060200180831161041857829003601f168201915b50505050509080600201805461044a90613060565b80601f016020809104026020016040519081016040528092919081815260200182805461047690613060565b80156104c35780601f10610498576101008083540402835291602001916104c3565b820191906000526020600020905b8154815290600101906020018083116104a657829003601f168201915b5050505050908060030180546104d890613060565b80601f016020809104026020016040519081016040528092919081815260200182805461050490613060565b80156105515780601f1061052657610100808354040283529160200191610551565b820191906000526020600020905b81548152906001019060200180831161053457829003601f168201915b50505050509080600401805461056690613060565b80601f016020809104026020016040519081016040528092919081815260200182805461059290613060565b80156105df5780601f106105b4576101008083540402835291602001916105df565b820191906000526020600020905b8154815290600101906020018083116105c257829003601f168201915b5050505050905085565b600360003373ffffffffffffffffffffffffffffffffffffffff1673ffffffffffffffffffffffffffffffffffffffff1681526020019081526020016000206040518060e001604052808981526020018881526020018781526020018681526020018581526020018481526020018360ff168152509080600181540180825580915050600190039060005260206000209060070201600090919091909150600082015181600001908161069c919061323d565b5060208201518160010190816106b2919061323d565b5060408201518160020190816106c8919061323d565b5060608201518160030190816106de919061323d565b5060808201518160040190816106f4919061336a565b5060a082015181600501908161070a919061323d565b5060c08201518160060160006101000a81548160ff021916908360ff160217905550505050505050505050565b6001602052816000526040600020818154811061075357600080fd5b90600052602060002090600302016000915091505080600001805461077790613060565b80601f01602080910402602001604051908101604052809291908181526020018280546107a390613060565b80156107f05780601f106107c5576101008083540402835291602001916107f0565b820191906000526020600020905b8154815290600101906020018083116107d357829003601f168201915b50505050509080600101805461080590613060565b80601f016020809104026020016040519081016040528092919081815260200182805461083190613060565b801561087e5780601f106108535761010080835404028352916020019161087e565b820191906000526020600020905b81548152906001019060200180831161086157829003601f168201915b5050505050908060020154905083565b60606000600360003373ffffffffffffffffffffffffffffffffffffffff1673ffffffffffffffffffffffffffffffffffffffff168152602001908152602001600020805490508310610916576040517f08c379a000000000000000000000000000000000000000000000000000000000815260040161090d90613488565b60405180910390fd5b6000600360003373ffffffffffffffffffffffffffffffffffffffff1673ffffffffffffffffffffffffffffffffffffffff1681526020019081526020016000208481548110610969576109686134a8565b5b90600052602060002090600702016040518060e001604052908160008201805461099290613060565b80601f01602080910402602001604051908101604052809291908181526020018280546109be90613060565b8015610a0b5780601f106109e057610100808354040283529160200191610a0b565b820191906000526020600020905b8154815290600101906020018083116109ee57829003601f168201915b50505050508152602001600182018054610a2490613060565b80601f0160208091040260200160405190810160405280929190818152602001828054610a5090613060565b8015610a9d5780601f10610a7257610100808354040283529160200191610a9d565b820191906000526020600020905b815481529060010190602001808311610a8057829003601f168201915b50505050508152602001600282018054610ab690613060565b80601f0160208091040260200160405190810160405280929190818152602001828054610ae290613060565b8015610b2f5780601f10610b0457610100808354040283529160200191610b2f565b820191906000526020600020905b815481529060010190602001808311610b1257829003601f168201915b50505050508152602001600382018054610b4890613060565b80601f0160208091040260200160405190810160405280929190818152602001828054610b7490613060565b8015610bc15780601f10610b9657610100808354040283529160200191610bc1565b820191906000526020600020905b815481529060010190602001808311610ba457829003601f168201915b50505050508152602001600482018054610bda90613060565b80601f0160208091040260200160405190810160405280929190818152602001828054610c0690613060565b8015610c535780601f10610c2857610100808354040283529160200191610c53565b820191906000526020600020905b815481529060010190602001808311610c3657829003601f168201915b50505050508152602001600582018054610c6c90613060565b80601f0160208091040260200160405190810160405280929190818152602001828054610c9890613060565b8015610ce55780601f10610cba57610100808354040283529160200191610ce5565b820191906000526020600020905b815481529060010190602001808311610cc857829003601f168201915b505050505081526020016006820160009054906101000a900460ff1660ff1660ff1681525050905080600001518160c001519250925050915091565b600360003373ffffffffffffffffffffffffffffffffffffffff1673ffffffffffffffffffffffffffffffffffffffff168152602001908152602001600020805490508710610da5576040517f08c379a0000000000000000000000000000000000000000000000000000000008152600401610d9c90613488565b60405180910390fd5b85600360003373ffffffffffffffffffffffffffffffffffffffff1673ffffffffffffffffffffffffffffffffffffffff1681526020019081526020016000208881548110610df757610df66134a8565b5b90600052602060002090600702016001019081610e14919061323d565b5084600360003373ffffffffffffffffffffffffffffffffffffffff1673ffffffffffffffffffffffffffffffffffffffff1681526020019081526020016000208881548110610e6757610e666134a8565b5b90600052602060002090600702016002019081610e84919061323d565b5083600360003373ffffffffffffffffffffffffffffffffffffffff1673ffffffffffffffffffffffffffffffffffffffff1681526020019081526020016000208881548110610ed757610ed66134a8565b5b90600052602060002090600702016003019081610ef4919061323d565b5082600360003373ffffffffffffffffffffffffffffffffffffffff1673ffffffffffffffffffffffffffffffffffffffff1681526020019081526020016000208881548110610f4757610f466134a8565b5b90600052602060002090600702016004019081610f64919061336a565b5081600360003373ffffffffffffffffffffffffffffffffffffffff1673ffffffffffffffffffffffffffffffffffffffff1681526020019081526020016000208881548110610fb757610fb66134a8565b5b90600052602060002090600702016005019081610fd4919061323d565b5080600360003373ffffffffffffffffffffffffffffffffffffffff1673ffffffffffffffffffffffffffffffffffffffff1681526020019081526020016000208881548110611027576110266134a8565b5b906000526020600020906007020160060160006101000a81548160ff021916908360ff16021790555050505050505050565b6060806060806060806000600360003373ffffffffffffffffffffffffffffffffffffffff1673ffffffffffffffffffffffffffffffffffffffff1681526020019081526020016000208054905088106110e8576040517f08c379a00000000000000000000000000000000000000000000000000000000081526004016110df90613488565b60405180910390fd5b6000600360003373ffffffffffffffffffffffffffffffffffffffff1673ffffffffffffffffffffffffffffffffffffffff168152602001908152602001600020898154811061113b5761113a6134a8565b5b90600052602060002090600702016040518060e001604052908160008201805461116490613060565b80601f016020809104026020016040519081016040528092919081815260200182805461119090613060565b80156111dd5780601f106111b2576101008083540402835291602001916111dd565b820191906000526020600020905b8154815290600101906020018083116111c057829003601f168201915b505050505081526020016001820180546111f690613060565b80601f016020809104026020016040519081016040528092919081815260200182805461122290613060565b801561126f5780601f106112445761010080835404028352916020019161126f565b820191906000526020600020905b81548152906001019060200180831161125257829003601f168201915b5050505050815260200160028201805461128890613060565b80601f01602080910402602001604051908101604052809291908181526020018280546112b490613060565b80156113015780601f106112d657610100808354040283529160200191611301565b820191906000526020600020905b8154815290600101906020018083116112e457829003601f168201915b5050505050815260200160038201805461131a90613060565b80601f016020809104026020016040519081016040528092919081815260200182805461134690613060565b80156113935780601f1061136857610100808354040283529160200191611393565b820191906000526020600020905b81548152906001019060200180831161137657829003601f168201915b505050505081526020016004820180546113ac90613060565b80601f01602080910402602001604051908101604052809291908181526020018280546113d890613060565b80156114255780601f106113fa57610100808354040283529160200191611425565b820191906000526020600020905b81548152906001019060200180831161140857829003601f168201915b5050505050815260200160058201805461143e90613060565b80601f016020809104026020016040519081016040528092919081815260200182805461146a90613060565b80156114b75780601f1061148c576101008083540402835291602001916114b7565b820191906000526020600020905b81548152906001019060200180831161149a57829003601f168201915b505050505081526020016006820160009054906101000a900460ff1660ff1660ff16815250509050806000015181602001518260400151836060015184608001518560a001518660c00151975097509750975097509750975050919395979092949650565b6000600360003373ffffffffffffffffffffffffffffffffffffffff1673ffffffffffffffffffffffffffffffffffffffff16815260200190815260200160002080549050905090565b6060806000600160003373ffffffffffffffffffffffffffffffffffffffff1673ffffffffffffffffffffffffffffffffffffffff1681526020019081526020016000208054905084106115ef576040517f08c379a00000000000000000000000000000000000000000000000000000000081526004016115e690613523565b60405180910390fd5b6000600160003373ffffffffffffffffffffffffffffffffffffffff1673ffffffffffffffffffffffffffffffffffffffff1681526020019081526020016000208581548110611642576116416134a8565b5b906000526020600020906003020160405180606001604052908160008201805461166b90613060565b80601f016020809104026020016040519081016040528092919081815260200182805461169790613060565b80156116e45780601f106116b9576101008083540402835291602001916116e4565b820191906000526020600020905b8154815290600101906020018083116116c757829003601f168201915b505050505081526020016001820180546116fd90613060565b80601f016020809104026020016040519081016040528092919081815260200182805461172990613060565b80156117765780601f1061174b57610100808354040283529160200191611776565b820191906000526020600020905b81548152906001019060200180831161175957829003601f168201915b505050505081526020016002820154815250509050806000015181602001518260400151935093509350509193909250565b600260003373ffffffffffffffffffffffffffffffffffffffff1673ffffffffffffffffffffffffffffffffffffffff1681526020019081526020016000206040518060a00160405280878152602001868152602001858152602001848152602001838152509080600181540180825580915050600190039060005260206000209060050201600090919091909150600082015181600001908161184c919061323d565b506020820151816001019081611862919061323d565b506040820151816002019081611878919061323d565b50606082015181600301908161188e919061336a565b5060808201518160040190816118a4919061323d565b5050505050505050565b600160003373ffffffffffffffffffffffffffffffffffffffff1673ffffffffffffffffffffffffffffffffffffffff16815260200190815260200160002060405180606001604052808581526020018481526020018381525090806001815401808255809150506001900390600052602060002090600302016000909190919091506000820151816000019081611946919061323d565b50602082015181600101908161195c919061323d565b50604082015181600201555050505050565b60008054906101000a900473ffffffffffffffffffffffffffffffffffffffff1681565b600360205281600052604060002081815481106119ae57600080fd5b9060005260206000209060070201600091509150508060000180546119d290613060565b80601f01602080910402602001604051908101604052809291908181526020018280546119fe90613060565b8015611a4b5780601f10611a2057610100808354040283529160200191611a4b565b820191906000526020600020905b815481529060010190602001808311611a2e57829003601f168201915b505050505090806001018054611a6090613060565b80601f0160208091040260200160405190810160405280929190818152602001828054611a8c90613060565b8015611ad95780601f10611aae57610100808354040283529160200191611ad9565b820191906000526020600020905b815481529060010190602001808311611abc57829003601f168201915b505050505090806002018054611aee90613060565b80601f0160208091040260200160405190810160405280929190818152602001828054611b1a90613060565b8015611b675780601f10611b3c57610100808354040283529160200191611b67565b820191906000526020600020905b815481529060010190602001808311611b4a57829003601f168201915b505050505090806003018054611b7c90613060565b80601f0160208091040260200160405190810160405280929190818152602001828054611ba890613060565b8015611bf55780601f10611bca57610100808354040283529160200191611bf5565b820191906000526020600020905b815481529060010190602001808311611bd857829003601f168201915b505050505090806004018054611c0a90613060565b80601f0160208091040260200160405190810160405280929190818152602001828054611c3690613060565b8015611c835780601f10611c5857610100808354040283529160200191611c83565b820191906000526020600020905b815481529060010190602001808311611c6657829003601f168201915b505050505090806005018054611c9890613060565b80601f0160208091040260200160405190810160405280929190818152602001828054611cc490613060565b8015611d115780601f10611ce657610100808354040283529160200191611d11565b820191906000526020600020905b815481529060010190602001808311611cf457829003601f168201915b5050505050908060060160009054906101000a900460ff16905087565b606080606080606080606080606080600260003373ffffffffffffffffffffffffffffffffffffffff1673ffffffffffffffffffffffffffffffffffffffff168152602001908152602001600020805490508b10611dc1576040517f08c379a0000000000000000000000000000000000000000000000000000000008152600401611db890613488565b60405180910390fd5b6000600260003373ffffffffffffffffffffffffffffffffffffffff1673ffffffffffffffffffffffffffffffffffffffff1681526020019081526020016000208c81548110611e1457611e136134a8565b5b90600052602060002090600502016040518060a0016040529081600082018054611e3d90613060565b80601f0160208091040260200160405190810160405280929190818152602001828054611e6990613060565b8015611eb65780601f10611e8b57610100808354040283529160200191611eb6565b820191906000526020600020905b815481529060010190602001808311611e9957829003601f168201915b50505050508152602001600182018054611ecf90613060565b80601f0160208091040260200160405190810160405280929190818152602001828054611efb90613060565b8015611f485780601f10611f1d57610100808354040283529160200191611f48565b820191906000526020600020905b815481529060010190602001808311611f2b57829003601f168201915b50505050508152602001600282018054611f6190613060565b80601f0160208091040260200160405190810160405280929190818152602001828054611f8d90613060565b8015611fda5780601f10611faf57610100808354040283529160200191611fda565b820191906000526020600020905b815481529060010190602001808311611fbd57829003601f168201915b50505050508152602001600382018054611ff390613060565b80601f016020809104026020016040519081016040528092919081815260200182805461201f90613060565b801561206c5780601f106120415761010080835404028352916020019161206c565b820191906000526020600020905b81548152906001019060200180831161204f57829003601f168201915b5050505050815260200160048201805461208590613060565b80601f01602080910402602001604051908101604052809291908181526020018280546120b190613060565b80156120fe5780601f106120d3576101008083540402835291602001916120fe565b820191906000526020600020905b8154815290600101906020018083116120e157829003601f168201915b50505050508152505090506000600360003373ffffffffffffffffffffffffffffffffffffffff1673ffffffffffffffffffffffffffffffffffffffff1681526020019081526020016000208d8154811061215c5761215b6134a8565b5b90600052602060002090600702016040518060e001604052908160008201805461218590613060565b80601f01602080910402602001604051908101604052809291908181526020018280546121b190613060565b80156121fe5780601f106121d3576101008083540402835291602001916121fe565b820191906000526020600020905b8154815290600101906020018083116121e157829003601f168201915b5050505050815260200160018201805461221790613060565b80601f016020809104026020016040519081016040528092919081815260200182805461224390613060565b80156122905780601f1061226557610100808354040283529160200191612290565b820191906000526020600020905b81548152906001019060200180831161227357829003601f168201915b505050505081526020016002820180546122a990613060565b80601f01602080910402602001604051908101604052809291908181526020018280546122d590613060565b80156123225780601f106122f757610100808354040283529160200191612322565b820191906000526020600020905b81548152906001019060200180831161230557829003601f168201915b5050505050815260200160038201805461233b90613060565b80601f016020809104026020016040519081016040528092919081815260200182805461236790613060565b80156123b45780601f10612389576101008083540402835291602001916123b4565b820191906000526020600020905b81548152906001019060200180831161239757829003601f168201915b505050505081526020016004820180546123cd90613060565b80601f01602080910402602001604051908101604052809291908181526020018280546123f990613060565b80156124465780601f1061241b57610100808354040283529160200191612446565b820191906000526020600020905b81548152906001019060200180831161242957829003601f168201915b5050505050815260200160058201805461245f90613060565b80601f016020809104026020016040519081016040528092919081815260200182805461248b90613060565b80156124d85780601f106124ad576101008083540402835291602001916124d8565b820191906000526020600020905b8154815290600101906020018083116124bb57829003601f168201915b505050505081526020016006820160009054906101000a900460ff1660ff1660ff16815250509050806020015182600001518260400151846020015184606001518660400151866080015188606001518860a001518a608001519b509b509b509b509b509b509b509b509b509b5050509193959799509193959799565b6000604051905090565b600080fd5b600080fd5b600073ffffffffffffffffffffffffffffffffffffffff82169050919050565b600061259482612569565b9050919050565b6125a481612589565b81146125af57600080fd5b50565b6000813590506125c18161259b565b92915050565b6000819050919050565b6125da816125c7565b81146125e557600080fd5b50565b6000813590506125f7816125d1565b92915050565b600080604083850312156126145761261361255f565b5b6000612622858286016125b2565b9250506020612633858286016125e8565b9150509250929050565b600081519050919050565b600082825260208201905092915050565b60005b8381101561267757808201518184015260208101905061265c565b60008484015250505050565b6000601f19601f8301169050919050565b600061269f8261263d565b6126a98185612648565b93506126b9818560208601612659565b6126c281612683565b840191505092915050565b600081519050919050565b600082825260208201905092915050565b60006126f4826126cd565b6126fe81856126d8565b935061270e818560208601612659565b61271781612683565b840191505092915050565b600060a082019050818103600083015261273c8188612694565b905081810360208301526127508187612694565b905081810360408301526127648186612694565b9050818103606083015261277881856126e9565b9050818103608083015261278c8184612694565b90509695505050505050565b600080fd5b600080fd5b7f4e487b7100000000000000000000000000000000000000000000000000000000600052604160045260246000fd5b6127da82612683565b810181811067ffffffffffffffff821117156127f9576127f86127a2565b5b80604052505050565b600061280c612555565b905061281882826127d1565b919050565b600067ffffffffffffffff821115612838576128376127a2565b5b61284182612683565b9050602081019050919050565b82818337600083830152505050565b600061287061286b8461281d565b612802565b90508281526020810184848401111561288c5761288b61279d565b5b61289784828561284e565b509392505050565b600082601f8301126128b4576128b3612798565b5b81356128c484826020860161285d565b91505092915050565b600067ffffffffffffffff8211156128e8576128e76127a2565b5b6128f182612683565b9050602081019050919050565b600061291161290c846128cd565b612802565b90508281526020810184848401111561292d5761292c61279d565b5b61293884828561284e565b509392505050565b600082601f83011261295557612954612798565b5b81356129658482602086016128fe565b91505092915050565b600060ff82169050919050565b6129848161296e565b811461298f57600080fd5b50565b6000813590506129a18161297b565b92915050565b600080600080600080600060e0888a0312156129c6576129c561255f565b5b600088013567ffffffffffffffff8111156129e4576129e3612564565b5b6129f08a828b0161289f565b975050602088013567ffffffffffffffff811115612a1157612a10612564565b5b612a1d8a828b0161289f565b965050604088013567ffffffffffffffff811115612a3e57612a3d612564565b5b612a4a8a828b0161289f565b955050606088013567ffffffffffffffff811115612a6b57612a6a612564565b5b612a778a828b0161289f565b945050608088013567ffffffffffffffff811115612a9857612a97612564565b5b612aa48a828b01612940565b93505060a088013567ffffffffffffffff811115612ac557612ac4612564565b5b612ad18a828b0161289f565b92505060c0612ae28a828b01612992565b91505092959891949750929550565b612afa816125c7565b82525050565b60006060820190508181036000830152612b1a8186612694565b90508181036020830152612b2e8185612694565b9050612b3d6040830184612af1565b949350505050565b600060208284031215612b5b57612b5a61255f565b5b6000612b69848285016125e8565b91505092915050565b612b7b8161296e565b82525050565b60006040820190508181036000830152612b9b8185612694565b9050612baa6020830184612b72565b9392505050565b600080600080600080600060e0888a031215612bd057612bcf61255f565b5b6000612bde8a828b016125e8565b975050602088013567ffffffffffffffff811115612bff57612bfe612564565b5b612c0b8a828b0161289f565b965050604088013567ffffffffffffffff811115612c2c57612c2b612564565b5b612c388a828b0161289f565b955050606088013567ffffffffffffffff811115612c5957612c58612564565b5b612c658a828b0161289f565b945050608088013567ffffffffffffffff811115612c8657612c85612564565b5b612c928a828b01612940565b93505060a088013567ffffffffffffffff811115612cb357612cb2612564565b5b612cbf8a828b0161289f565b92505060c0612cd08a828b01612992565b91505092959891949750929550565b600060e0820190508181036000830152612cf9818a612694565b90508181036020830152612d0d8189612694565b90508181036040830152612d218188612694565b90508181036060830152612d358187612694565b90508181036080830152612d4981866126e9565b905081810360a0830152612d5d8185612694565b9050612d6c60c0830184612b72565b98975050505050505050565b6000602082019050612d8d6000830184612af1565b92915050565b600080600080600060a08688031215612daf57612dae61255f565b5b600086013567ffffffffffffffff811115612dcd57612dcc612564565b5b612dd98882890161289f565b955050602086013567ffffffffffffffff811115612dfa57612df9612564565b5b612e068882890161289f565b945050604086013567ffffffffffffffff811115612e2757612e26612564565b5b612e338882890161289f565b935050606086013567ffffffffffffffff811115612e5457612e53612564565b5b612e6088828901612940565b925050608086013567ffffffffffffffff811115612e8157612e80612564565b5b612e8d8882890161289f565b9150509295509295909350565b600080600060608486031215612eb357612eb261255f565b5b600084013567ffffffffffffffff811115612ed157612ed0612564565b5b612edd8682870161289f565b935050602084013567ffffffffffffffff811115612efe57612efd612564565b5b612f0a8682870161289f565b9250506040612f1b868287016125e8565b9150509250925092565b612f2e81612589565b82525050565b6000602082019050612f496000830184612f25565b92915050565b6000610140820190508181036000830152612f6a818d612694565b90508181036020830152612f7e818c612694565b90508181036040830152612f92818b612694565b90508181036060830152612fa6818a612694565b90508181036080830152612fba8189612694565b905081810360a0830152612fce8188612694565b905081810360c0830152612fe281876126e9565b905081810360e0830152612ff681866126e9565b905081810361010083015261300b8185612694565b90508181036101208301526130208184612694565b90509b9a5050505050505050505050565b7f4e487b7100000000000000000000000000000000000000000000000000000000600052602260045260246000fd5b6000600282049050600182168061307857607f821691505b60208210810361308b5761308a613031565b5b50919050565b60008190508160005260206000209050919050565b60006020601f8301049050919050565b600082821b905092915050565b6000600883026130f37fffffffffffffffffffffffffffffffffffffffffffffffffffffffffffffffff826130b6565b6130fd86836130b6565b95508019841693508086168417925050509392505050565b6000819050919050565b600061313a613135613130846125c7565b613115565b6125c7565b9050919050565b6000819050919050565b6131548361311f565b61316861316082613141565b8484546130c3565b825550505050565b600090565b61317d613170565b61318881848461314b565b505050565b5b818110156131ac576131a1600082613175565b60018101905061318e565b5050565b601f8211156131f1576131c281613091565b6131cb846130a6565b810160208510156131da578190505b6131ee6131e6856130a6565b83018261318d565b50505b505050565b600082821c905092915050565b6000613214600019846008026131f6565b1980831691505092915050565b600061322d8383613203565b9150826002028217905092915050565b6132468261263d565b67ffffffffffffffff81111561325f5761325e6127a2565b5b6132698254613060565b6132748282856131b0565b600060209050601f8311600181146132a75760008415613295578287015190505b61329f8582613221565b865550613307565b601f1984166132b586613091565b60005b828110156132dd578489015182556001820191506020850194506020810190506132b8565b868310156132fa57848901516132f6601f891682613203565b8355505b6001600288020188555050505b505050505050565b60008190508160005260206000209050919050565b601f821115613365576133368161330f565b61333f846130a6565b8101602085101561334e578190505b61336261335a856130a6565b83018261318d565b50505b505050565b613373826126cd565b67ffffffffffffffff81111561338c5761338b6127a2565b5b6133968254613060565b6133a1828285613324565b600060209050601f8311600181146133d457600084156133c2578287015190505b6133cc8582613221565b865550613434565b601f1984166133e28661330f565b60005b8281101561340a578489015182556001820191506020850194506020810190506133e5565b868310156134275784890151613423601f891682613203565b8355505b6001600288020188555050505b505050505050565b7f496e76616c6964207265717565737420696e6465780000000000000000000000600082015250565b6000613472601583612648565b915061347d8261343c565b602082019050919050565b600060208201905081810360008301526134a181613465565b9050919050565b7f4e487b7100000000000000000000000000000000000000000000000000000000600052603260045260246000fd5b7f496e76616c6964207573657220696e6465780000000000000000000000000000600082015250565b600061350d601283612648565b9150613518826134d7565b602082019050919050565b6000602082019050818103600083015261353c81613500565b905091905056fea26469706673582212207993c6fcd9c60984985978f97ece174780cccccd95a2a26c50e869f737b506a664736f6c63430008130033",
  "immutableReferences": {},
  "source": "// SPDX-License-Identifier: MIT\npragma solidity ^0.8.19;\n\ncontract IdentityManagement {\n    \n    address public contractOwner;\n\n    constructor() {\n        contractOwner = msg.sender;\n    }\n\n    struct UserInfo {\n        string fullName;\n        string emailID;\n        uint256 mobileNo;\n    }\n    \n    struct UserDL {\n        string DL_No;\n        string DL_Name;\n        string DL_DOB;\n        bytes DL_Hash;\n        string DL_Address;\n    }\n\n    struct DLRequest {\n        string requestedBy;\n        string DL_No;\n        string DL_Name;\n        string DL_DOB;\n        bytes DL_Hash;\n        string DL_Address;\n        uint8 DL_OverAll_Status;\n    }\n\n    mapping(address => UserInfo[]) public userMap;\n    mapping(address => UserDL[]) public userDLMap;\n    mapping(address => DLRequest[]) public DLRequestMap;\n    \n    modifier onlyOwner() {\n        require(msg.sender == contractOwner, \"Only contract owner can call this function\");\n        _;\n    }\n\n    function addUser(string memory _fullName, string memory _emailID, uint256 _mobileNo) external {\n        userMap[msg.sender].push(UserInfo(_fullName, _emailID, _mobileNo));\n    }\n\n    function addUserDL(string memory _DL_No, string memory _DL_Name, string memory _DL_DOB, bytes memory _DL_Hash, string memory _DL_Address) external {\n        userDLMap[msg.sender].push(UserDL(_DL_No, _DL_Name, _DL_DOB, _DL_Hash, _DL_Address));\n    }\n\n    function addDLRequest(string memory _requestedBy, string memory _DL_No, string memory _DL_Name, string memory _DL_DOB, bytes memory _DL_Hash, string memory _DL_Address, uint8 _DL_OverAll_Status) external {\n        DLRequestMap[msg.sender].push(DLRequest(_requestedBy, _DL_No, _DL_Name, _DL_DOB, _DL_Hash, _DL_Address, _DL_OverAll_Status));\n    }\n\n    function viewDLRequestLength() external view returns (uint256) {\n        return DLRequestMap[msg.sender].length;\n    }\n\n    function viewDLRequestHeader(uint256 _requestIndex) external view returns (string memory, uint8) {\n        require(_requestIndex < DLRequestMap[msg.sender].length, \"Invalid request index\");\n        DLRequest memory thisDLRequest = DLRequestMap[msg.sender][_requestIndex];\n        return (thisDLRequest.requestedBy, thisDLRequest.DL_OverAll_Status);\n    }\n    \n    function viewDLRequestDetail(uint256 _requestIndex) external view returns (string memory, string memory, string memory, string memory, bytes memory, string memory, uint8) {\n        require(_requestIndex < DLRequestMap[msg.sender].length, \"Invalid request index\");\n        DLRequest memory thisDLRequest = DLRequestMap[msg.sender][_requestIndex];\n        return (thisDLRequest.requestedBy, thisDLRequest.DL_No, thisDLRequest.DL_Name, thisDLRequest.DL_DOB, thisDLRequest.DL_Hash, thisDLRequest.DL_Address, thisDLRequest.DL_OverAll_Status);\n    }\n\n    function updateRequestStatus(uint256 _requestIndex, string memory _DL_No, string memory _DL_Name, string memory _DL_DOB, bytes memory _DL_Hash, string memory _DL_Address, uint8 _DL_OverAll_Status) external {\n        require(_requestIndex < DLRequestMap[msg.sender].length, \"Invalid request index\");\n        DLRequestMap[msg.sender][_requestIndex].DL_No = _DL_No;\n        DLRequestMap[msg.sender][_requestIndex].DL_Name = _DL_Name;\n        DLRequestMap[msg.sender][_requestIndex].DL_DOB = _DL_DOB;\n        DLRequestMap[msg.sender][_requestIndex].DL_Hash = _DL_Hash;\n        DLRequestMap[msg.sender][_requestIndex].DL_Address = _DL_Address;\n        DLRequestMap[msg.sender][_requestIndex].DL_OverAll_Status = _DL_OverAll_Status;\n    }\n\n    function viewUser(uint256 _userIndex) external view returns (string memory, string memory, uint256) {\n        require(_userIndex < userMap[msg.sender].length, \"Invalid user index\");\n        UserInfo memory thisUser = userMap[msg.sender][_userIndex];\n        return (thisUser.fullName, thisUser.emailID, thisUser.mobileNo);\n    }\n\n    function viewUserDL(uint256 _requestIndex) external view returns (string memory, string memory, string memory, string memory,string memory,string memory, bytes memory,bytes memory,string memory,string memory) {\n    require(_requestIndex < userDLMap[msg.sender].length, \"Invalid request index\");\n    UserDL memory thisUserDL = userDLMap[msg.sender][_requestIndex];\n    DLRequest memory thisDLRequest = DLRequestMap[msg.sender][_requestIndex];\n    return (thisDLRequest.DL_No, thisUserDL.DL_No, thisDLRequest.DL_Name, thisUserDL.DL_Name, thisDLRequest.DL_DOB, thisUserDL.DL_DOB, thisDLRequest.DL_Hash, thisUserDL.DL_Hash, thisDLRequest.DL_Address, thisUserDL.DL_Address);\n}\n}",
  "sourcePath": "D:\\Engineering\\Blockchain - Project\\Code\\Identity-Management-master\\Identity-Management-master\\Identity-Management-master\\contracts\\IdentityManagement.sol",
  "compiler": {
    "name": "solc",
    "version": "0.8.19+commit.7dd6d404.Emscripten.clang"
  },
  "schemaVersion": "3.4.16",
  "updatedAt": "2024-04-16T08:08:50.428Z",
  "networkType": "ethereum",
  "devdoc": {
    "kind": "dev",
    "methods": {},
    "version": 1
  },
  "userdoc": {
    "kind": "user",
    "methods": {},
    "version": 1
  }
}